:020000040000fa
:10000000f03f0020212400007f250000cf2a0000bf
:1000100000000000000000000000000000000000e0
:10002000000000000000000000000000c3230000ea
:100030000000000000000000c3230000393200006f
:10004000c3230000c3230000c3230000c323000018
:10005000c3230000c3230000c3230000c323000008
:10006000c3230000c3230000c3230000c3230000f8
:10007000c3230000c3230000c3230000c3230000e8
:10008000c3230000c3230000c3230000c3230000d8
:10009000c32300000000000000000000c323000094
:1000a000c3230000c3230000c3230000c3230000b8
:0800b00000000000c323000062
:020000040000fa
:1000b800f8b5c046f8bc08bc9e4670474526000007
:1000c800f8b5c046f8bc08bc9e4670471d2600001f
:020000040000fa
:1000d800f0b59db00490039115001c00002805d0d0
:1000e80083690593002b01d102f000f9984b039a1c
:1000f8009a4260d1049b5b680393039b9b891b070f
:1001080067d5039b1b690593002b62d000220f92d1
:1001180020220aab5a76302206959a76069d2b78cd
:10012800002b60d1069bee1a0cd03300069a039977
:10013800049802f01ffc431c00d170e10f9b9e192c
:1001480005930f962b78002b00d168e101220aaea7
:10015800524272605322002306a97e4f521801357d
:100168000a93f360b36013702237052229783800a8
:1001780003f0c8f86a1c002839d13068c30604d5d2
:100188005323202106afdb191970030704d5532325
:100198002b2106afdb1919702b782a2b2fd00020c2
:1001a8000a21f3682a78303a092a00d870e0002832
:1001b8002cd0f3602ae0684b039a9a4202d1049b40
:1001c8009b6899e7654b039a9a4296d1049bdb6832
:1001d80092e70399049801f069fa002896d0012063
:1001e80040421db0f0bd252b9cd0013597e7012377
:1001f800c01b8340316815000b433360b5e72368a3
:10020800211d002b3edbf36015000c002b782e2bf4
:100218000ad16b786a1c2a2b42d122680235231d29
:10022800002a3adb1c0072604a4f297828370322db
:10023800380003f067f8002806d04023c01b83402d
:100248003268013513433360424f297838006b1cfc
:1002580006222c300693317603f054f85322337e6d
:1002680006a95218692b31d03ed8582b78d029d8f6
:10027800002b00d1f6e0522106a809180b700123c3
:100288000e9356e05b42f360022303433360bbe7ff
:100298004b4301359b18012084e701225242c1e7f4
:1002a800002315000a201a007360297830390929bb
:1002b80003d9002bb8d07260b6e742430135521813
:1002c8000123f2e7632b2cd0642bd4d10a99231d88
:1002d8002668080633d51c00002e02da2d23764244
:1002e80013700a23059357e0702b00d19ee00dd8b8
:1002f8006f2bc0d10a99221d2668080623d5140041
:100308006f2b00d19be00a23059340e0752bf1d0b9
:10031800782bb0d15523782206a95b181a701137ab
:1003280022e0522306a95b182178043419700123ae
:10033800336100235225137006abed1851e04906ce
:10034800c9d536b2c7e74906d9d5b6b2d7e7c04648
:10035800bc310000cc2d0000dc3100009c310000d5
:10036800552206a9521813700a9b221d26681906e1
:1003780061d51400da0702d5202213430a9310230b
:100388000593002e03d120230a9a9a430a925323f5
:10039800002206a95b181a700b9b0c93002b7bdbc1
:1003a80004220a9991430a91002e4ad1002b75d153
:1003b800532506abed18059b082b0dd10a9bdb07cf
:1003c8000ad50b9b05930e9b0793079a059b9342af
:1003d80002dc3023013d2b70532306aa9b185b1bbc
:1003e8000e93314b09aa00930aa9039b049801f0c4
:1003f800d3f9431c13d00e9b2a000399049802f0ea
:10040800b9fa431c0bd00a9b002505939b0737d4e8
:10041800099a0d9b934200da13005a1c37d1039bab
:100428000f989b895b0600d4dbe6d8e62023326868
:10043800134333606ee759069bd5b6b299e7082394
:1004480062e7532506abed183000059901f076fdfb
:100458007b5c013d30002b70059901f033fd061ed1
:10046800f2d1a8e733611500bbe7292206a90123c9
:1004780052180498039902f07dfa431ccfd0013535
:100488000d9b099a05939b1a9d42eedbc0e70f9ad4
:10049800d31805920f9341e6002ed2d1522506ab10
:0c04a800ed183b782b7086e77d290000e2
:020000040000fa
:1004b4005c0300201c0000000000000088030020f2
:1004c400020000000000000000000020c000000046
:1004d40000000000c00000200c000000000000002c
:1004e400cc000020c00000000000000078030020c1
:1004f4000400000001000000fc020020fc020020b7
:10050400600000000100000000000000bc31000099
:10051400dc3100009c3100000000000000000000fd
:1005240000000000000000000000000000000000c7
:1005340000000000000000000000000000000000b7
:1005440000000000000000000000000000000000a7
:100554000000000000000000000000000000000097
:1005640000000000000000007c03002004000000e4
:1005740000000000800300200400000000000000d0
:10058400900100206c010000010000004300000005
:100594000000000000000000000000000000000057
:1005a4000000000000000000000000004300000004
:1005b4000000000000000000000000000000000037
:1005c40000000000000000000000000043000000e4
:1005d4000000000000000000000000000000000017
:1005e40000000000000000000000000043000000c4
:1005f40000000000000000000000000000000000f7
:1006040000000000000000000000000043000000a3
:1006140000000000000000000000000000000000d6
:100624000000000000000000000000004300000083
:1006340000000000000000000000000000000000b6
:100644000000000000000000000000004300000063
:100654000000000000000000000000000000000096
:10066400000000000000000000000000f53200005f
:100674001931000000000000b0150000dd33000057
:10068400dc330000dc330000dc330000dc3300002a
:10069400dc330000dc330000dc330000dc3300001a
:1006a400dc330000ffffffffffffffffffffffff43
:1006b400ffff0000010041534349490000000000ce
:1006c4000000000000000000000000000000000026
:1006d40000000000000041534349490000000000ad
:1006e4000000000000000000000000000000000006
:1006f40000000000000000008c0100200400000045
:10070400000000008403002004000000000000003a
:1007140000000000000000002222222222222222c5
:020000040000fa
:1007240070b50400954a80239b02112900d91be16e
:100734008900934841588f4692490a40f021490361
:100744000a4391490a40e021c9000a430f218a4320
:1007540007210a43f8256d011d430821200001f0fb
:10076400a3ff002800d002e12a000c21200001f0a0
:100774009bff002800d0fde070bd82490a40e021c3
:1007840009030a4380490a40c02189000a430f2112
:100794008a4303210a43f0252d011d43dde77949ee
:1007a4000a40802109030a4377490a4080218900cd
:1007b4000a430f218a4302210a4390252d011d4338
:1007c400cbe770490a40c021c9020a436e490a4076
:1007d400802149000a430f218a4301210a43e0256d
:1007e400ed001d43b9e767490a408021c9020a4365
:1007f40065490a40802149000a430f218a430121a7
:100804000a43a025ed001d43a7e75e490a40c02125
:1008140089020a435c490a400f218a438025ed007e
:100824001d439ae757490a40802189020a435649e1
:100834000a400f218a43c025ad001d4301231d43f7
:100844008be750490a40802149020a434e490a4035
:100854000f218a438025ad001d437ee71202120a50
:1008640080235b041a43474b1a40f0235b031a436b
:10087400454b1a40e023db001a430f239a43072316
:100884001a43f8256d0168e71202120a80235b04fb
:100894001a433c4b1a4088235b031a433a4b1a40d1
:1008a4008023db001a430f239a4304231a43902521
:1008b4006d0152e733490a40f02149030a433249a2
:1008c4000a40e021c9000a430f218a4307210a4351
:1008d400f8256d011d4340e72a490a409021490348
:1008e4000a4329490a40a021c9000a430f218a4327
:1008f40005210a4398256d011d432ee721490a402d
:10090400e02109030a4320490a40c02189000a431f
:100914000f218a4303210a43f0252d011d431ce7bf
:1009240018490a40802109030a4317490a408021d3
:1009340089000a430f218a4302210a4390252d018d
:100944001d430ae70f490a40c021c9020a430e4960
:100954000a40802149000a430f218a4301210a43a6
:10096400e025ed001d43f8e60120404204e70220a3
:10097400404201e703204042fee6c04603030e0066
:0c09840084270000ffffe0fffff0fffff2
:020000040000fa
:10099000f0b5de4657464e464546e0b583b0804644
:1009a0008c469246002948d0002846d0694a5268b1
:1009b000072111400dd000206246d20700d5a0e0eb
:1009c000002b4ad14246501e82415242604610409e
:1009d00084465246002a00d19ce05e4a127e5207ad
:1009e00005d55c4a0424906a107e2042fbd1594a06
:1009f000508b042420435083107e802420431076a3
:100a000000229146634502d962469a1a914600290e
:100a100006d05b086246520894464a465208914600
:100a20004c4c0120227e0242fcd000220027494c7f
:100a3000042601250192009123e00020002b60d0c4
:100a40005246002a64d0434a52680721114000d11f
:100a500079e06246002a00d06fe00020da07b1d5c5
:100a60004fe078004246805ac005c00da0620137b1
:100a7000002b13d1019a0099207e2842fcd00192cc
:100a8000009167452ad0009a002aead14046c05d0d
:100a9000a0620137ece7304aa26227e0019a009990
:100aa000207e3042fcd001928b460091a06a11005a
:100ab0009a42e6d25a46002a04d152465054013195
:100ac0000191dee7019a52009346c005c00d5246df
:100ad00059468852019a01320192d2e74a46002ac9
:100ae00009d0009a002ad6d1ff22a26201225242e6
:100af0009346d944bce7174902220b7e1342fcd02f
:100b0000012003b03cbc90469946a246ab46f0bdde
:100b10000020f6e70f4b1a7e0023520700d560e74e
:100b20000c4b5a8b042002435a831a7e80200243c6
:100b30001a7600230022914669e700206246d20718
:100b400000d48ae7dde74246002a00d041e70022d0
:0c0b5000944642e7000c0042ff01000048
:020000040000fa
:100b5c0070b50400624a8025ad02112900d9b5e0b8
:100b6c008900604b5b589f465f4b1a40e0231b0388
:100b7c001a435e4b1a40c0239b001a430f239a431f
:100b8c0003231a43f0231b011d430821200001f00d
:100b9c0087fd002800d09ce02a000c21200001f0e9
:100bac007ffd002800d097e070bd4f4b1a40c0234a
:100bbc00db021a434d4b1a4080235b001a430f2370
:100bcc009a4301231a43e023db001d43dde7464b28
:100bdc001a4080239b021a43444b1a400f239a431a
:100bec00c0239b001d43d0e73f4b1a4080235b0280
:100bfc001a433e4b1a400f239a43f233ff331d43e3
:100c0c00c3e7394b1a40f0235b031a43374b1a40a6
:100c1c00e023db001a430f239a4307231a43f825da
:100c2c006d01b2e7304b1a4088235b031a432f4bfc
:100c3c001a408023db001a430f239a4304231a43e0
:100c4c0090256d01a1e7284b1a40e0231b031a43a2
:100c5c00264b1a40c0239b001a430f239a430323ad
:100c6c001a43f0231b011d438fe71f4b1a408023af
:100c7c001b031a431d4b1a4080239b001a430f235e
:100c8c009a4302231a4390231b011d437de7164b05
:100c9c001a40c023db021a43144b1a4080235b001a
:100cac001a430f239a4301231a43e023db001d430d
:100cbc006be70d4b1a4080239b021a430b4b1a40d7
:100ccc000f239a43c0239b001d435ee70120404243
:100cdc006ae70220404267e70320404264e7c046cf
:100cec0003030e0014280000ffffe0fffff0ffffde
:020000040000fa
:100cfc00f0b599b000900e00140001931eab1f7854
:100d0c000c217143503189b2032315aa00f0b6ffb0
:100d1c00002800d099e002ab4c229b181d78159b43
:100d2c001b0600d594e0179b1905090d8023db00e9
:100d3c009c4661442022154000d06fe03a000832f6
:100d4c00d2b2930703d003239a430432d2b2131cba
:100d5c004c2a00d94c23dbb202aa009801f05afab3
:100d6c00002800d077e002ab5b781b0202aa127855
:100d7c00134302aa917809043a4a13400b4302a97f
:100d8c00c97809061b021b0a0b43236002a90979c7
:100d9c00ff2083430b4302a94979090232480340df
:100dac000b4302a98979090413400b4302aad27997
:100dbc0012061b021b0a13436360002d32d002aad9
:100dcc00127aff218b43134302aa527a1202034078
:100ddc00134302aa927a120422490b40134302aa2b
:100dec00d27a12061b021b0a1343a360002f0dd0ec
:100dfc0005ab019c013ff9b218aa944661444b39ea
:100e0c001a782270013301348b42f9d131000098e9
:100e1c0002f096fa002821d119b0f0bd3a000c323c
:100e2c00d2b28ee70023a360002fefd004ab019c5d
:100e3c00013ff9b218aa944661444f391a782270ce
:100e4c00013301348b42f9d1e0e701204042e3e762
:100e5c0002204042e0e703204042dde7042040420c
:0c0e6c00dae7c046ffff00ffff00ffffb9
:020000040000fa
:100e7800f8b5ce46474680b5002001f089ff00202e
:100e880001f09cfdff21002001f0bafe4e4c20002d
:100e980001f060fa237820229046424613432370db
:100ea80063784027bb437f263340637021000020ce
:100eb80000f048fe454d280002f09cf96b781f228f
:100ec8009343072213432022524213436b702b781b
:100ed8003e2291469343022213432b702a0002219b
:100ee800002001f003fc002302220421002001f06d
:100ef80017fb0021002001f083fd354d04236b61b1
:100f0800012001f045ff012001f058fdff210120db
:100f180001f076fe200001f01dfa237842461343c3
:100f280023706378bb431e4066702100012000f0e7
:100f380009fe284c200002f0fdf823784a46934326
:100f48001e22134323702288e0235b00134323806f
:100f580022000121012001f035fe1f4a00261660fb
:100f6800c0239b0013800023d3701c4c13682340bc
:100f780013600021012002f0f7f9194a1660ff23d7
:100f8800db0013804023d37013681c4014600021d9
:100f9800012002f0f1f9012301220021012002f0d1
:100fa80055f9002302220421012001f0b9fa002199
:100fb800012001f025fd802252009423ea500cbc48
:100fc80090469946f8bdc046bc00002004000020a9
:100fd800004400412c00002034000020ff0700e0fe
:040fe80014000020d1
:020000040000fa
:100fec00f0b51d004f4b85b01e6804000f00009239
:100ffc00002e05d0b369002b02d1300001f074f93a
:10100c00494b9c4250d17468009b022b05d0012b9c
:10101c0000d984e0002d00da81e02100300001f0dd
:10102c0051fa616b002908d023004433994202d055
:10103c00300000f06dfe002363630023a361636046
:10104c00a3891b0603d52169300000f061fea3893a
:10105c00364a1340a381009b022b5ad003ab02aa41
:10106c002100300001f086faa3891843a081002ddd
:10107c0024d1029d280002f059f90195071e42d196
:10108c00029b0193ab4239d1012040420223a28939
:10109c001343a3810023a360230047332360236100
:1010ac000123636105b0f0bd214b9c4201d1b468b2
:1010bc00aae7204b9c42a7d1f468a5e7002fd9d012
:1010cc00b369002b02d1300001f00ef9009b012b0b
:1010dc0003d1a389009a1a43a2810820a38927600f
:1010ec0027616561184018d00120184000239842f0
:1010fc0011d06d42a360a5611800d3e7019802f0ee
:10110c0015f9071ec0d08023a289019d1343a3812a
:10111c00d6e70020bae7a560c4e7a060c2e70120cb
:10112c004042bfe778030020bc3100005cf3ffffb6
:08113c00dc3100009c310000d1
:020000040000fa
:10114400f0b5c64600b582b0c046c046404b1a88ca
:10115400511c19803f490f231a40c0239b009c4611
:1011640062440b88db0adb0213430b800b790f22ea
:101174001a43ef2313404022134380225242134365
:101184000b710f2001f05cfdff260640b046371eb0
:101194000add00250024304e00f098ff705501341c
:1011a40024b22500bc42f7db2c4a0221002001f0c6
:1011b40055fe3224294f01253b781d4211d1274a7f
:1011c4000221002001f04afe013ce4b2002cf3d1dc
:1011d400c046c046224b234a2349002001f0a4fd07
:1011e4001ee01d4d1b4c01230193434600932b002d
:1011f40022000221002000f055f92a7821884905af
:10120400490d1a4801f0b8ff0a2001f00ffe184cee
:1012140022000121012001f031fd2378db0703d4f2
:1012240002b004bc9046f0bd124c4023009323004e
:10123400114a01210120fff75ffd2278054b19882f
:101244004905490d0948343001f096ffe8e7c046e6
:10125400880300201c0000203c0000200000002027
:101264001800002038000020300000208c220000ec
:0c127400280000207c0000200800002062
:020000040000fa
:1012800070b504003f4a8025ad02112900d970e0f5
:1012900089003d4b5b589f463c4b1a40c023db0204
:1012a0001a433b4b1a4080235b001a430f239a4397
:1012b00001231a43e023db001d430821200001f035
:1012c000f5f9002858d12a000c21200001f0eef990
:1012d000002854d170bd2d4b1a4080239b021a4325
:1012e0002b4b1a400f239a43c0239b001d43e4e776
:1012f000264b1a40e0231b031a43254b1a40c023f8
:101300009b001a430f239a4303231a43f0252d0110
:10131000d3e71e4b1a40e023db021a431c4b1a4052
:1013200080239b001a430f239a4302231a438025ec
:101330002d01c2e7154b1a40c023db021a43144ba0
:101340001a4080235b001a430f239a4301231a4358
:10135000e023db001d43b0e70c4b1a4080239b02c7
:101360001a430b4b1a400f239a43c0239b001d4383
:10137000a3e701204042ade702204042aae7032054
:101380004042a7e703030e00a4280000ffffe0ff90
:04139000fff0ffff6c
:020000040000fa
:10139400f7b58a8905000c00130760d44b68002b4d
:1013a40004dc0b6c002b01dc0020febde76a002f7f
:1013b400fad000232e682b6080235b011a4034d0be
:1013c400606da3895b0706d56368c01a636b002b45
:1013d40001d0236cc01a0200216a00232800e76aa6
:1013e400b847a189431c06d12b681d2b31d82c4a40
:1013f400da40d3072dd50023636023692360cb042f
:1014040005d5431c02d12b68002b00d16065616bac
:101414002e600029c8d023004433994202d028000a
:1014240000f07afc00206063bfe70123216a2800f2
:10143400b847431cc5d12b68002bc2d01d2b01d04b
:10144400162b01d12e60afe74023a2891343a38159
:10145400abe740230b430120a3814042a5e70f697a
:10146400002fa1d00b680f60db1b019300239207b0
:1014740000d14b69a360019b002b00dc94e7019b26
:101484003a00216a2800a66ab047002803dc4023fa
:10149400a2891343dfe7019b3f181b1a0193eae774
:0414a40001004020e3
:020000040000fa
:1014a800f0b5c64600b598b001900d0017001c00b5
:1014b8001eab40cb1b7898460c216943503189b24a
:1014c800032315aa00f0dcfb00285ed1159b1b0640
:1014d8005ed538790007000f01f0b0fbb0425ad34f
:1014e800179b1905090d8023db009c4661443b7856
:1014f80002aa13707b785370bb789370fb78d37013
:101508003b7913717b795371bb799371fb79d371f3
:10151800002e38d000220023180002afbc466044d9
:10152800a25c02720133dbb21a009e42f4d8002397
:10153800b20713d00322324004239b1a9bb2370010
:101548000837ffb2002b09d0002267440024b818de
:1015580004720132d2b290b28342f8d808369b198d
:101568009bb202aa019c200000f028ff002815d198
:1015780042462900200001f00cfd002811d118b0c6
:1015880004bc9046f0bd0023e8e701204042f6e79e
:1015980002204042f3e703204042f0e704204042a3
:0815a800ede705204042eae7ef
:020000040000fa
:1015b0000020202020202020202028282828282023
:1015c000202020202020202020202020202020201b
:1015d0002088101010101010101010101010101083
:1015e0001004040404040404040404101010101073
:1015f000101041414141414101010101010101013d
:10160000010101010101010101010101101010108e
:10161000101042424242424202020202020202020e
:101620000202020202020202020202021010101062
:10163000200000000000000000000000000000008a
:10164000000000000000000000000000000000009a
:10165000000000000000000000000000000000008a
:10166000000000000000000000000000000000007a
:10167000000000000000000000000000000000006a
:10168000000000000000000000000000000000005a
:10169000000000000000000000000000000000004a
:1016a000000000000000000000000000000000003a
:0116b0000039
:020000040000fa
:1016b400364b70b51d6806000c00002d05d0ab69d3
:1016c400002b02d1280000f013fe314b9c420fd1b5
:1016d4006c680c23e25e93b219072dd4d90611d499
:1016e40009233360402301201343a381404270bd8a
:1016f400284b9c4201d1ac68ebe7274b9c42e8d1d4
:10170400ec68e6e75b0713d5616b002908d023007a
:101714004433994202d0300000f0fefa00236363a0
:101724002422a3899343a381002363602369236054
:101734000823a2891343a3812369002b0bd1a02181
:101744008022a389890092000b40934203d0210098
:10175400300000f03ffc0123a289134011d0002384
:10176400a36063695b42a361002023698342bed105
:101774000c23e25e1306bad540231343a381013838
:10178400b5e7920700d46369a360ede7780300200e
:0c179400bc310000dc3100009c31000082
:020000040000fa
:1017a000f7b5150001938a680b6900900c0093420d
:1017b00000da130022002b6043321278002a01d095
:1017c00001332b6023689b0602d52b6802332b6004
:1017d000062723681f4027d0230043331b785a1e57
:1017e00093412268920630d4220001994332009836
:1017f000089eb047431c25d0062320682a68e1686c
:1018000003400025042b03d18d1aeb43db171d4049
:10181000a3682269934201dd9b1aed180027bd429f
:1018200020d1002010e00137e3682a689b1a9f420c
:10183000d2da22000123193201990098089eb0479c
:10184000431cf0d101204042febd3020e11843315d
:10185000087021005a1c45310978a218433202331e
:101860001170c1e7220001231a3201990098089ee5
:0a187000b047431ce6d00137d1e772
:020000040000fa
:02187a007047b5
:020000040000fa
:10187c00f8b505000e001400002804d08369002b75
:10188c0001d100f031fd294b9c4233d16c68a36926
:10189c00a360a3891b0737d52369002b34d00c23f5
:1018ac00e25e80239b01f7b2f6b21a4236d023686f
:1018bc002269981a6369984205db2100280000f020
:1018cc0001fe002826d1a3680130013ba3602368e8
:1018dc005a1c22601f706369984204d0a389db07ed
:1018ec001ad50a2e18d12100280000f0ebfd002893
:1018fc0012d00fe00e4b9c4201d1ac68c7e70d4be8
:10190c009c42c4d1ec68c2e721002800fff7ccfe52
:10191c000028c4d0012676423000f8bd1343a381c1
:10192c00226e054b13402366c1e7c046bc31000054
:0c193c00dc3100009c310000ffdfffffe9
:020000040000fa
:10194800032370b5cd1c9d43083506000c2d1ed20f
:101958000c25a9421dd8300001f0abf9254a1468be
:101968002100002919d1244c2368002b03d1300011
:1019780001f086fb20602900300001f081fb431c48
:101988002cd10c233000336001f0e7f903e0002d7f
:10199800dfda0c233360002070bd0b685b1b1ad4a0
:1019a8000b2b03d90b60cc18256003e08c420ed1b9
:1019b80063681360300001f0d0f9200007220b3073
:1019c800231d9043c31ae7d05a42e250e4e74b681c
:1019d80063600c00eee70c004968c2e70323c41cef
:1019e8009c43a042e0d0211a300001f049fb431c7f
:0c19f800dad1c6e77c0300208003002049
:020000040000fa
:101a040010b5244a11293fd88900234b5b589f46bf
:101a1400224b1a40f0235b031a43214b1a40e02364
:101a2400db001a437f239a4307231a43042100f05f
:101a34003bfe00282bd110bd194b1a40f0231b018b
:101a44001a437f239a430f231a43efe7134b1a4099
:101a5400e0231b031a43124b1a40c0239b001a4372
:101a64007f239a4303231a43e0e70c4b1a40fc23d9
:101a7400db031a430a4b1a40f8235b011a437f2302
:101a84009a431f231a43d1e701204042d3e702209f
:101a94004042d0e70f0f3e00cc270000ffff00ffbd
:041aa400ff80ffffc1
:020000040000fa
:101aa80010b5244a11293fd88900234b5b589f461b
:101ab800224b1a40e0231b031a43214b1a40c02330
:101ac8009b001a437f239a4303231a43042100f0ff
:101ad800e9fd00282bd110bd184b1a40f0235b03f9
:101ae8001a43174b1a40e023db001a437f239a431b
:101af80007231a43eae7114b1a40e023db021a4393
:101b08000f4b1a4080239b001a437f239a430223da
:101b18001a43dbe70a4b1a40f0231b011a437f23c1
:101b28009a430f231a43d1e701204042d3e702200a
:101b38004042d0e70f0f3e005c280000ffff00ff87
:041b4800ff80ffff1c
:020000040000fa
:101b4c0070b50c78e306db0e204a1a4365090123b5
:101b5c001d406d012026b2432a43a5091d40ad014d
:101b6c004026b2432a43e4091c402402184d2a4063
:101b7c0022434c78a5076d0d164e3240a6081e4028
:101b8c0036032a43e5081d402d04324326091e4026
:101b9c0076042a4365091d40ad0432432a43a50946
:101bac001d40ed040c4e32402a43e40923401b0532
:101bbc000a4c2240897809071a430a43002100f095
:101bcc006ffd431e9841404270bdc04660079804ab
:101bdc00fffefffffff9fffffffff7ffffffefff28
:020000040000fa
:101bec0010b5224a11293dd88900214b5b589f46dc
:101bfc00204b1a40f0231b011a437f239a430f23d7
:101c0c001a43042100f04cfd10bd1b4b1a40fc2361
:101c1c00db031a43174b1a40f8235b011a437f234b
:101c2c009a431f231a43ece7134b1a40f0235b0330
:101c3c001a43104b1a40e023db001a437f239a43cc
:101c4c0007231a43dde70c4b1a40fe231b041a43ef
:101c5c00084b1a40fc239b011a437f239a433f23d2
:101c6c001a43cee701204042cee7c0460f0f3e009c
:0c1c7c003c270000ff80ffffffff00ff7f
:020000040000fa
:101c8800f0b583b0070016001c00204d0b051b0f94
:101c980030332b706970012100f036ff00230022d9
:101ca80002212800fef770fe0500a3009bb2184a27
:101cb80000210020fef768fe0540edb20021380043
:101cc80000f022ff0120002d1dd0002c1ad0013c6d
:101cd800a7b20137bf00002000239c4601ad0c4c81
:101ce80004e0019b3350043087420bd083b2624634
:101cf80001920022e15c515501339bb20132042a62
:101d0800f8d1eee7002003b0f0bdc046cc000020bb
:041d18002c0100207a
:020000040000fa
:101d1c0070b50500002910d00c1f2368002b00dac9
:101d2c00e418280000f0c3ff1d4a1368002b05d1ee
:101d3c0063601460280001f00ef870bda34209d94d
:101d4c00216860188342f3d118685b6841182160e0
:101d5c00eee713005a68002a01d0a242f9d919689b
:101d6c005818a0420bd120680918581819608242e3
:101d7c00e0d110685268411819605a60dae7a04245
:101d8c0002d90c232b60d5e721686018824203d15d
:101d9c00106852684118216062605c60cae7c046f6
:041dac007c03002094
:020000040000fa
:101db000204a214b70b50021934203d219700133a0
:101dc0009342fbd1002503261c4803684168002b81
:101dd00018d100292dd083680c30002b18d0002397
:101de0000022845c9c5401328a42fad333000b40b7
:101df0005a1e9341890859188900401803684168a0
:101e0000002be6d082680c30002a07d10029dcd0f4
:101e100059181d7001338b42fbd1d6e70029dfd161
:101e200033000b405a1e9341890859188900401805
:101e3000e4e770bd9001002000000020b404000021
:020000040000fa
:101e40001a4b00229a619a8c80218a439a84190045
:101e50001022cb681a42fcd0154b1b689b0e3f2bff
:101e600022d09b02134a12689205920d13430f4a27
:101e700093620223938411001022cb681a42fcd093
:101e80000d4a0e4b5a601a0053785bb2002bfbdbf5
:101e90000a4b0b4a5a8004325a800a4a0a4b1a6289
:101ea0000022024b1a6270471f23dae70008004045
:101eb000246080002860800000070100000c0040c2
:0c1ec000154000008800010000040040f4
:020000040000fa
:101ecc00002934d00123002210b488422cd30124e1
:101edc002407a14204d2814202d209011b01f8e776
:101eec00e400a14204d2814202d249005b00f8e72f
:101efc00884201d3401a1a434c08a04202d3001b5b
:101f0c005c0822438c08a04202d3001b9c0822438d
:101f1c00cc08a04202d3001bdc082243002803d0cb
:101f2c001b0901d00909e3e7101c10bc704701b56f
:101f3c00002001f06ffa02bd0029f8d003b5fff7bd
:0c1f4c00c1ff0ebc4243891a1847c04672
:020000040000fa
:101f5800f8b51e4b07001e68b369002b02d130008c
:101f680000f0c4f94836b4687368013b04d5336897
:101f7800002b07d03668f6e70c22a55e002d0dd0a1
:101f88006434f2e70421380000f0acff3060002828
:101f9800f0d10c2304003b602000f8bd01235b4214
:101fa800e381200001232566a3812560a560656083
:101fb80025616561a56108222900583001f0ecf916
:101fc8006563a563a564e564e6e7c04624340000bc
:020000040000fa
:101fd800f7b502268b8905000c00334206d0230092
:101fe80047332360236101236361f7bd01ab6a4670
:101ff80000f0c2fa009907002800fff7a1fc0028aa
:1020080006d10c22a35e9a05efd41e43a681e6e70b
:102018000d4bab628023a28920601343a381009bf0
:1020280020616361019b002b0ad00e23e15e28002a
:1020380001f05cf8002803d00123a2891343a3818f
:0c204800a0893843a081d0e7913300004c
:020000040000fa
:10205400f0b585b001900e00140001f015f90128c7
:102064001ad1731efe2b17d8050002ab1e71002770
:10207400af4220d003abd95da368013ba360002b22
:1020840004daa269934219db0a2917d023685a1c7f
:10209400226019700137ebe723003200583303a99b
:1020a400019800f093fa0500431ce0d14023060098
:1020b400a2891343a381300005b0f0bd220001982a
:0c20c400fff7dafb431ce5d10600f4e74f
:020000040000fa
:1020d000154b10b51c68a36b002b15d1182001f00f
:1020e0002bf9124ba0630380114b01224380114b4b
:1020f0008380114bc380114b0381052343810b2344
:102100008381002302614361a46b0d4a20696169e8
:102110000c4b00f09afc01220023801859412061e9
:1021200061614800400810bd780300200e330000b4
:10213000cdabffff341200006de6ffffecdeffffca
:082140002d7f954c2df4515840
:020000040000fa
:1021480030b5174b174a1a60174a1a6106214622fa
:1021580099544822995449229954012250201a54da
:1021680051201a5453201a5456201a5457201954df
:10217800222438201c54202439201c5403203b24ba
:102188001855a025ed0080241d5180252d0190248f
:102198001d51cb241955d6215a54bb22985430bd11
:0c21a800004400410400041040038400c7
:020000040000fa
:1021b40070b506001400174d0b051b0f30332b7040
:1021c4006970012100f0a2fc0023002202212800f2
:1021d400fef7dcfb050004230f4a00210020fef774
:1021e400d5fb0540edb20021300000f08ffc01204a
:1021f400002d0dd0002323600748c25cd9008a401b
:1022040021688c46624422600133042bf5d10020fe
:0c22140070bdc046cc0000202c01002052
:020000040000fa
:10222000f8b5070015001c00164e0b051b0f3033c8
:1022300033707170012100f06bfc00230022022139
:102240003000fef7a5fb060023000f4a0021002006
:10225000fef79efb0640f6b20021380000f058fc65
:102260000120002e0cd0002c09d0013ca1b201317c
:1022700000230548c25cea5401338b42fad10020a6
:0c228000f8bdc046cc0000202c0100205e
:020000040000fa
:10228c000d0a205472616e736d6974206d657373e1
:10229c006167652773204944203d20253034782c14
:1022ac0020616e64207478645b305d203d202530a5
:1022bc00327800000d0a2052656365697665206de1
:1022cc006573736167652773204944203d20253071
:1022dc0034782c20616e64207278645b305d203d14
:0822ec00202530327800c046c5
:020000040000fa
:1022f400836913b50400002b28d18364c364036588
:10230400134b144a1b6882620193984201d1012342
:1023140083612000fff71efe60602000fff71afeb5
:10232400a0602000fff716fe0022e0600421606830
:1023340000f0fefa01220921a06800f0f9fa022255
:102344001221e06800f0f4fa0123a36113bdc04632
:08235400243400009133000065
:020000040000fa
:10235c00f0b5ce46474680b5037820211f22934323
:10236c008b43202213434025dbb2ab43402633433f
:10237c00802291467f242340134303700327437824
:10238c009846032342469a431743fb233b400827b6
:10239c00bb431027bb438b43ab43334323404a46d9
:1023ac001a43427083780f229343837000200cbc35
:0623bc0090469946f0bdb9
:020000040000fa
:0223c200fee734
:020000040000fa
:1023c40070b504009d1cadb2124e0805000f2030fc
:1023d40030707170022d0ad90f49013b98b2081868
:1023e400013013780b70013201318142f9d101219e
:1023f400200000f08bfb0023002229000548fef793
:10240400c5fa05000021200000f080fb012068408f
:0c24140040b270bdcc000020ce000020c3
:020000040000fa
:1024200010b50e4b002b00d098470d4b002b00d061
:102430009847fff7bdfc0b4aff210b4b8b43936082
:102440000a4b98470a4b002b00d09847094b002baa
:1024500000d0984700f082fefee7c0460000000072
:102460000000000000ed00e000000000ed2800008a
:08247000000000000000000064
:020000040000fa
:10247800f8b505001600124c0b051b0f30332370fe
:1024880061700023a370012100f03efb00230022ad
:1024980002212000fef778fa04000a4f01233a00cf
:1024a80000210020fef770fa0440e4b20021280061
:1024b80000f02afb3b7833700120604040b2f8bd41
:0824c800cc0000202c010020d3
:020000040000fa
:1024d0000b6970b505000c00002b01d1002070bd08
:1024e000002804d08369002b01d1fff703ff0b4bb9
:1024f0009c4209d16c680c22a35e002beed0210017
:102500002800fef747ffeae7054b9c4201d1ac6883
:10251000f1e7044b9c42eed1ec68ece7bc310000e3
:08252000dc3100009c310000d9
:020000040000fa
:1025280070b504000d001600012b10d0002b04d04c
:10253800022b16d00120404270bdfff753fb002844
:10254800fad1320029002000fef7e8f8f4e7fff797
:1025580055fa0028f0d1320029002000fef7fafad7
:10256800eae7fff79dfa0028e6d1320029002000ab
:06257800fef782fee0e721
:020000040000fa
:02257e00fee776
:020000040000fa
:1025800070b50e001d000e23c95e90b01400002926
:1025900007da00232b60b3891b0611d48023db00ec
:1025a0000fe001aa00f094fd0028f2dbf022029b6c
:1025b00012021340054a9b185a4253412b60ede723
:1025c00040230020236010b070bdc04600e0ffff34
:020000040000fa
:1025d0007fb51d000f4b04001b681b6a002911d139
:1025e000002b00d10c4be0331e6800222b0001a908
:1025f0002000b047431c03d100232b608a232360b3
:1026000004b070bd002b00d1034be0331e682b00db
:0c261000eee7c046780300209001002097
:020000040000fa
:10261c0010b5064c2378002b07d1054b002b02d0ac
:10262c00044800e000bf0123237010bd5c030020b0
:10263c000000000000000000044b10b5002b03d07c
:10264c000349044800e000bf10bdc0460000000074
:08265c006003002000000000f3
:020000040000fa
:1026640010b506220e4b5a600e4c236858680021a0
:1026740000f073fe23689868002100f06efefff7f7
:1026840061fdfff7dbfb00f091fe00f017fcfff7a4
:10269400f2f800f0e5fc00f00ffb00f09ffe10bd27
:0826a400004000417803002012
:020000040000fa
:1026ac0070b505000f4c0b051b0f203323706170a8
:1026bc00a270130ae370130c2371120e62710121c4
:1026cc0000f020fa0023002206212000fef75af920
:1026dc0004000021280000f015fa0120604040b2ef
:0826ec0070bdc046cc000020c7
:020000040000fa
:1026f40070b554781f26250035402d0664096407fb
:102704000b4b2b4323431478a5096d05094a1a4042
:10271400630833401b042a43e407e40fa4011a436b
:1027240022430c235943503189b2fff7bdff70bdda
:0827340080046000ffff9fff1d
:020000040000fa
:10273c00fc1b0000fc1b0000fc1b0000fc1b000031
:10274c00fc1b0000fc1b0000fc1b0000fc1b000021
:10275c00161c0000161c0000161c0000161c0000a5
:10276c00161c0000161c0000161c0000341c000077
:08277c00341c0000521c000097
:020000040000fa
:102784003c0700007e070000a2070000c607000007
:10279400ea0700000e0800002808000046080000b0
:1027a400600800008c080000b8080000dc08000085
:1027b400000900002409000048090000c6070000c1
:0827c400280800006008000075
:020000040000fa
:1027cc00141a0000141a00008c1a0000141a0000cd
:1027dc00141a0000141a0000141a0000141a000035
:1027ec003c1a00003c1a00003c1a00003c1a000085
:1027fc003c1a00003c1a00003c1a0000501a000061
:08280c00501a00006e1a0000d2
:020000040000fa
:10281400740b0000b60b0000d80c0000da0b0000ab
:10282400f40b0000d80c0000d80c0000d80c0000f9
:102834000e0c0000300c0000520c0000760c00005e
:102844009a0c0000d80c0000be0c0000da0b00004b
:08285400d80c00000e0c00007e
:020000040000fa
:10285c00b81a0000b81a0000301b0000b81a0000ab
:10286c00b81a0000b81a0000b81a0000b81a000014
:10287c00e01a0000e01a0000e01a0000e01a000064
:10288c00e01a0000e01a0000e01a0000fe1a000036
:08289c00fe1a00001c1b0000e5
:020000040000fa
:1028a40098120000d6120000721300007213000088
:1028b4007213000072130000721300007213000000
:1028c400f012000012130000341300007213000011
:1028d40058130000721300007213000072130000fa
:0828e40072130000f012000065
:020000040000fa
:1028ec0070b500260c4d0d4c641ba410a64209d1ea
:1028fc000026fdf7dbfb0a4d0a4c641ba410a64214
:10290c0005d170bdb300eb5898470136eee7b30024
:10291c00eb5898470136f2e7c4000000c4000000f1
:08292c00c4000000c800000017
:020000040000fa
:10293400002310b504000360436083608181036653
:10294400c28103614361836119000822583000f099
:1029540025fd054b24626362044ba362044be362ce
:10296400044b236310bdc046c52f0000f52c0000a6
:08297400192f0000bd33000023
:020000040000fa
:10297c00f8b50d00096e06001400d718890418d597
:10298c009f08bf00d719bc4201d1002008e02a00e3
:10299c0002cc300000f03bfc431cf4d1012040423f
:1029ac00f8bd21782a00300000f0dcfa0134431c19
:0829bc00f4d0bc42f5d1e8e7bc
:020000040000fa
:1029c40010b582b004006b46da1d002313700c4965
:1029d400fff750fd00280cd16b46da7901210a4338
:1029e400da710749200000f0d1f8002804d102b0c0
:1029f40010bd01204042fae702204042f7e7c046fa
:042a04000c0e0000b4
:020000040000fa
:102a080030b583b005000c006b46da1d0023137047
:102a18000321fff72dfd00280dd16b46da79072138
:102a28008a432243da710321280000f0adf8002818
:102a380004d103b030bd01204042fae702204042f1
:022a4800f7e7ae
:020000040000fa
:102a4a00f7b5050c019393b21f006b439c46140c17
:102a5a0086b277436643654366443c0ca419a34295
:102a6a0002d980235b02ed18260cbfb2019b240415
:102a7a00e41943432000514375195918491903b001
:022a8a00f0bd9d
:020000040000fa
:102a8c00f7b504000700002601914834002c01d151
:102a9c003000febd6368a5680093009b013b00936a
:102aac0001d52468f2e7ab89012b08d90e22ab5e65
:102abc00013304d029003800019b98470643643544
:022acc00ebe736
:020000040000fa
:022ace00fee721
:020000040000fa
:102ad00070b505000c00002815d000f091f9002019
:102ae0000a4a04210726a04208d0137e0b42fcd0dc
:102af000138d2b540130538b3342f4d0001b4342cf
:102b00005841c0b270bd0020fce7c046001c004226
:020000040000fa
:102b1000002802d001280cd07047002904d0802260
:102b2000d2020a4b5a61f7e78022d202074b9a6120
:102b3000f2e7002904d180225205044b9a61ebe7a9
:102b400080225205014b5a61e6e7c046004400412d
:020000040000fa
:102b500070b50c000025002904d0002a02d0150011
:102b6000022801d9280070bd084b002b04d01100a9
:102b7000200000e000bff5e716002078013e00f0dd
:102b8000a0fb0134002ef8d1ece7c04600000000a5
:020000040000fa
:102b900070b505000c4c0b051b0f203323706170c2
:102ba000a2700121fff7b4ff0023002203212000bf
:102bb000fdf7eefe040000212800fff7a9ff012029
:0c2bc000604040b270bdc046cc00002058
:020000040000fa
:102bcc0070b5002915d013789c06e40e26061588de
:102bdc00ed056d0f6d07084c3443da07d20f520127
:102bec002c4322430c235943503189b2fff758fd33
:0c2bfc0070bd64204042fbe70004600054
:020000040000fa
:102c080070b598b004006b4618aa197001339a423f
:102c1800fbd18025ed00be26360160236a462900d7
:102c28002000fff7cbfb002804d16035adb2b542d8
:0c2c3800f3d101e00120404218b070bd53
:020000040000fa
:102c4400c046c046082808d90938c3b2062b11d893
:102c54009800094b1b589f460c2070471020fce736
:102c64001420fae71820f8e72020f6e73020f4e7ec
:0c2c74004020f2e70020f0e77032000082
:020000040000fa
:102c800010b582b01400002911d0002301930c2349
:102c90005943543189b201aafff7eefb002809d14c
:102ca00001ab1a780f231340237002b010bd6420cb
:0a2cb0004042fae701204042f7e736
:020000040000fa
:022cba00704761
:020000040000fa
:102cbc000a4b0b4a1a600b4a9a81c02292025a6044
:102ccc001a00d369002bfcd1044a136802210b4370
:102cdc001360d369002bfcd17047c046001c004226
:082cec00040120402bf6ffff5c
:020000040000fa
:102cf400f8b51f008b8905000c001600db0505d50f
:102d04000e23c95e0022022300f082f9a389054a3a
:102d140028001340a38132000e23e15e3b0000f043
:082d240063f9f8bdffefffffaa
:020000040000fa
:102d2c0070b582b00e0015001c000023019301aa9f
:102d3c003421fff739fa00280ad101ab5a783270e6
:102d4c001a782a709a783f231340237002b070bd12
:062d5c0001204042fae7ed
:020000040000fa
:022d62007047b8
:020000040000fa
:102d640030b500280fd000290fd005004118084abb
:102d74000124137e2342fcd02b7813850135a9420c
:102d8400f7d1012030bd0020fce70120fae7c0465e
:042d9400001c0042dd
:020000040000fa
:102d980070b505000a4c0023237063700121fff70a
:102da800b3fe0023002202212000fdf7edfd040000
:102db80000212800fff7a8fe0120604040b270bd46
:042dc800cc0000201b
:020000040000fa
:102dcc003031323334353637383941424344454655
:102ddc0000303132333435363738396162636465eb
:102dec006600232d302b2000686c4c00656667450f
:032dfc0046470047
:020000040000fa
:102e00000a4b588b0723184000d17047074b80228c
:102e10001a7607225a831b7e5b07f6d5034b0421e3
:102e20001a8d1a7e0a42fbd1efe7c046001c004211
:020000040000fa
:102e300010b5094b1b68db439b0700d010bd074b47
:102e40009c68fa2189004843fff740f8034a9368d9
:102e50001b1b9842fbd8f1e710e000e0c000002007
:020000040000fa
:102e600010b582b01400002301930c235943543150
:102e700089b201aafff700fb002806d101ab1a783e
:102e800017231340237002b010bd01204042fae71f
:020000040000fa
:102e9000084a1368002b09d007491818884202d83d
:102ea00010601800704701204042fbe7034b13609d
:102eb000f2e7c04684030020900500209003002024
:020000040000fa
:102ec00080229202074b5a601a00d369002bfcd172
:102ed000044b17221a73044a1a601a00d369002b94
:0c2ee000fcd17047000c00420e003000d6
:020000040000fa
:102eec0070b564254a1e55430e0029007031fef75b
:102efc0025fd041e08d000212a00016046600c301c
:0c2f0c00a060643200f046fa200070bda6
:020000040000fa
:102f180070b50c000e25495f00f078f8a389421cb3
:102f280003d1054a1340a38170bd80225201134387
:0c2f3800a3816065f8e7c046ffefffffd3
:020000040000fa
:102f440070b5002600290ed0002a0cd016000028e7
:102f540009d10c001500012000f0a4f9013d2070f6
:0c2f64000134002df7d1300070bdc046d4
:020000040000fa
:102f7000936810b5013b9360002b05da9469a34276
:102f800008dbcbb20a2b05d01368581c10601970ef
:0a2f9000c8b210bdfef772fcfbe7ab
:020000040000fa
:102f9a0010b50c235943513189b2802464002300af
:102faa00002a02d00133ff3323431a0afff7ebfd4d
:082fba00431e9841404210bd86
:020000040000fa
:102fc40070b50c000e25495f00f036f8002803dbcd
:102fd400636d1b18636570bda389024a1340a38106
:082fe400f9e7c046ffefffff13
:020000040000fa
:102fec0070b50500080011000022064c22601a0082
:102ffc0000f008fa431c03d12368002b00d02b608f
:08300c0070bdc0468c010020dc
:020000040000fa
:1030140070b50500080011000022064c22601a0059
:1030240000f0ecf9431c03d12368002b00d02b6083
:0830340070bdc0468c010020b4
:020000040000fa
:10303c0070b50500080011000022064c22601a0031
:10304c0000f0dcf9431c03d12368002b00d02b606b
:08305c0070bdc0468c0100208c
:020000040000fa
:10306400054a0023136093600449516006211160ee
:10307400034a93601360704710e000e07fbb0000d8
:04308400c000002068
:020000040000fa
:10308800002370b5064c050008002360fff7fcfe1e
:10309800431c03d12368002b00d02b6070bdc046b1
:0430a8008c01002077
:020000040000fa
:1030ac00002370b5064c05000800236000f096f96b
:1030bc00431c03d12368002b00d02b6070bdc0468d
:0430cc008c01002053
:020000040000fa
:1030d000002370b5064c050008001100236000f0c5
:1030e00087f9431c03d12368002b00d02b6070bdef
:0430f0008c0100202f
:020000040000fa
:1030f400002370b5064c05000800236000f07af93f
:10310400431c03d12368002b00d02b6070bdc04644
:043114008c0100200a
:020000040000fa
:1031180082b0002900d101a9101e06d0002b06d0cc
:1031280013780b601078431e984102b07047022054
:043138004042fae730
:020000040000fa
:10313c0003783e22934303700388044a13400380b0
:10314c003e221340037000207047c0463ffeffff35
:020000040000fa
:10315c0010b50020fff780fafdf788fe00f0dcf8d0
:10316c00fa24a4002000fff75dfefdf7e5fff9e768
:020000040000fa
:10317c000fb407b5054b04aa1b6802ca98680192e4
:10318c0000f0a6f803b008bc04b018477803002080
:020000040000fa
:10319c000000000000000000000000000000000023
:1031ac000000000000000000000000000000000013
:020000040000fa
:1031bc000000000000000000000000000000000003
:1031cc0000000000000000000000000000000000f3
:020000040000fa
:1031dc0000000000000000000000000000000000e3
:1031ec0000000000000000000000000000000000d3
:020000040000fa
:1031fc000378012293433e2293431a003f2313404a
:0e320c00c0221343037000234370002070475c
:020000040000fa
:10321a0010b50c23d45e80239b011c4204d11c43ad
:0e322a009481146e23431366fef70fff10bd50
:020000040000fa
:1032380010b5054b9a6801329a601b68002b02d0c2
:0c324800014a5068984710bdc0000020eb
:020000040000fa
:1032540010b55c1ea341db011f242240a34313438a
:0c326400dab2d131ff31fff791fc10bd50
:020000040000fa
:103270005c2c0000602c0000642c0000682c000016
:0c3280006c2c0000702c0000742c00006e
:020000040000fa
:10328c00044b1b681b6a002b00d1034b9422520089
:0c329c00985c704778030020900100202f
:020000040000fa
:1032a80000b583b000230193012101a8fff70cfcae
:0a32b8000028f9d0019803b000bd12
:020000040000fa
:1032c20000b583b06b46d87101216b46d81dfff75c
:0a32d20048fd0028f8d003b000bd4d
:020000040000fa
:1032dc0010b513000a00010002480068fcf7f6fe66
:0832ec0010bdc046780300206c
:020000040000fa
:1032f4000b1e04d0ff2a04d98a2303608b3b1800d9
:0833040070470a700123fae78b
:020000040000fa
:10330c00c9b28218904201d10020704703788b42d9
:06331c00fbd00130f6e7d2
:020000040000fa
:10332400034b00229a601a6801210a431a6070470d
:0433340010e000e0c5
:020000040000fa
:1033380010b5034b01001868fef702fb10bdc0462c
:0433480078030020e6
:020000040000fa
:10334c0010b50c235943513189b20122fff71afcf5
:02335c0010bda2
:020000040000fa
:10335e004a424a41802310b55200db00fdf73ffe82
:02336e0010bd90
:020000040000fa
:1033700010b51268c900f131ff31fff797f910bda0
:020000040000fa
:1033800010b51268c900f531ff31fff78ff910bd94
:020000040000fa
:1033900010b50249fff77afb10bdc046d1240000ea
:020000040000fa
:1033a00003008218934200d1704719700133f9e786
:020000040000fa
:0c33b0008222014b5a607047004000412f
:020000040000fa
:0c33bc0010b50e23c95efff773fe10bdb4
:020000040000fa
:0c33c80080239b0100204b607047c04632
:020000040000fa
:0b33d4004300504f53495800002e00ea
:020000040000fa
:0833e000bff35f8f62b6704776
:020000040000fa
:0833e80010b500f015f810bd4e
:020000040000fa
:0833f00010b5fff7e9ff10bd65
:020000040000fa
:0833f80010b500f015f810bd3e
:020000040000fa
:0834000010b500f013f810bd37
:020000040000fa
:0834080010b5fff79bfd10bd9c
:020000040000fa
:0834100010b5fff79dfb10bd94
:020000040000fa
:08341800012040427047c0464c
:020000040000fa
:043420007047c046eb
:020000040000fa
:04342400fc02002086
:020000040000fa
:0434280001207047c8
:020000040000fa
:04342c0000207047c5
:020000040000fa
:0200000400807a
:0440000077c700d8a6
:020000040000fa
:0200000400807a
:044004005c00ffff5e
:00000001FF
